:100000003CC0FECFFDCFFCCFFBCFFACFF9CFF8CF6E
:10001000F7CFF6CFF5CFF4CFF3CFF2CFF1CFF0CFCC
:10002000EFCFEECFEDCFECCFEBCF44696E67696ECB
:10003000000048616E676174000050616E6173007A
:1000400054656D703A20252E31662043005374614B
:100050007475733A2025730080C02D4E414E000008
:1000600001002D4E414E00494E4600000200E001C5
:1000700058000100E40160000000F894EE27ECBB9A
:10008000F1E0FBBFEBBFE5BFF8E1F1BDE1BD8DE005
:10009000A2E0BB27ED938A95E9F780E092E0A0E625
:1000A000ED930197E9F7ECE6F0E0859195910097E3
:1000B00061F0A591B59105901590BF01F0010590F3
:1000C0000D920197E1F7FB01F0CFEFE5EDBFE2E024
:1000D000EEBFC0EED1E07FC0E0E4E7B9E7E8E6B903
:1000E0000895AA93E881E770E883E7B1E87FA881E3
:1000F000EA2BE7B9369A3699FECFE4B1F5B14AC199
:100100002897EDECE883ECECE983ECE4EA83EEEB92
:10011000EB8324D7A0E0E5DF8F016627772743D85C
:10012000A0E0B0E08AEF9EE3C7D8EE83FF83688744
:100130007987EA81FB816C817D81AE81BF81888571
:1001400099856BD812D72A960895EBE0EEBDEBEBBC
:10015000F0E0FBBDEABDE0E0F0E0FDBDECBD0895E0
:10016000E0E0EABBE7E0E7BBEFEFE4BB089599D737
:10017000C098C198C29886D7E0E0F0E068EC71E4DE
:100180002DD910F4C09A0CC07DD7E0E0F0E06CE00F
:1001900072E424D911F008F002C0C19A01C0C29AD9
:1001A000CAC57FD76FD7E0E0F0E068EC71E416D9FC
:1001B00018F4EAE2F0E0BFC565D7E0E0F0E06CE0FB
:1001C00072E40CD911F008F003C0E2E3F0E0B3C52B
:1001D000EAE3F0E0B0C5A4977FDFA0E1A4D0B5DFEB
:1001E000BFDF8EDFE8A3F9A36AA37BA3A8A1B9A10F
:1001F0008AA19BA1BCDFFE017096FA93EA93E0E42A
:10020000F0E0FA93EA93ECA1FDA16EA17FA144D79F
:1002100084E0F8D42896FE01FA93EA93EDE4F0E046
:10022000FA93EA93ACA1BDA18EA19FA1BADF662784
:10023000772732D784E0E6D428963FD0E0E0EA93EF
:10024000A0E02ED0DE0150965DD0E0E0EA93A1E080
:1002500027D0DE0157D0A8EEB3E0E0D8C2CFFFCF61
:10026000AA93E5B3EF70AE2FE881E07FEA2BE5BB00
:1002700084E18A95F1F7AA9A84E18A95F1F7AA9820
:1002800084E18A95F1F786C0AA93A881E9DFE88125
:10029000E295E883A881E4DF88EC8A95F1F77AC0DB
:1002A000AA93E881F0E0E052FE4FE081A981AE0F11
:1002B000EBDF5980488022960895A2E0E5DFA3E0B5
:1002C000B0E0ACD8ACE0E0DFA1E0DEDFA3E0B0E07E
:1002D000A5D8E0E04E2E5E2E0895AA93A881AA30FC
:1002E00011F0571448F0E0E0EA934394A42DD8DFCE
:1002F000A881AA3009F44EC05394A89AA881C4DFFB
:10030000A89848C0BA93AA931A93A981BA81ED918B
:10031000A983BA831E2FE03019F0A12FDEDFF5CFBD
:10032000188123960895AA93E4B3E06FE4BBA29AE0
:10033000A09AA19AAA98A898A9987880E881E058EC
:10034000E093E201E881E054E093E301A4E1B0E04E
:1003500065D8A0E385DF8CE291E00197F1F7A0E397
:100360007FDF8CE291E00197F1F7A0E379DF8CE287
:1003700091E00197F1F7A0E273DF8CE291E0019741
:10038000F1F7A8E281DFA4E07FDFA5E87DDFA6E04A
:100390007BDF93DF21960895BA93AA93DFD5AA81D4
:1003A000BB8112964FD6309749F1AA81BB81149632
:1003B00049D68F01309761F00230E0E01E0798F0D7
:1003C000F80131978F01AA81BB811496ED93FC93BC
:1003D000AA81BB811296ED91FD913196FE93EE9329
:1003E0003197AC81A083AA81BB812CD6FF232AF050
:1003F000ED91FD913196FE93EE9306C0AA81BB81EB
:10040000EFEFFFEFED93FC93B0D525960895BA93E7
:10041000AA932497E0E0E883E983E0E8EA83EFE346
:10042000EB839AD5EE85FF85EF3FAFEFFA0741F4F6
:10043000E885F985FA93EA93AAE5B0E018D42BC1D0
:10044000EF3FAFE7FA0741F4E885F985FA93EA93BD
:10045000ABE5B0E00CD41FC1AB85A73010F0E6E0EF
:10046000EB871B85E12F1150E03071F0AC81BD812D
:100470008E819F81E0E0F0E060E271E41DD7EC83C3
:10048000FD836E837F83EECFEC85FD856E857F8552
:100490001AD679F430E0AC81BD818E819F81E0E095
:1004A000F0E060E271E408D7EC83FD836E837F8324
:1004B00073C03B85EC81FD816E817F81AC85BD85FC
:1004C0008E859F858BD709F008F423C0AC81BD8150
:1004D0008E819F81E0E0F0E060E271E4EDD6EC8394
:1004E000FD836E837F83EC81FD816E817F81AC858E
:1004F000BD858E859F8572D758F0EDECFCEC6CECD9
:100500007DE3DAD6EC87FD876E877F873F5FEBCF91
:1005100022C0EC81FD816E817F81AC85BD858E8599
:100520009F855CD758F4E0E0F0E060E271E4C4D667
:10053000EC87FD876E877F873150EBCFAC81BD8123
:100540008E819F81E0E0F0E060E271E4B5D6EC835B
:10055000FD836E837F83EC85FD856E857F85A0E0BE
:10056000B0E080E09FE359D6EC87FD876E877F87F8
:10057000EC81FD816E817F81AC85BD858E859F85F7
:100580002DD750F0EDECFCEC6CEC7DE395D6EC87D0
:10059000FD876E877F873F5F10E0EB85E11708F4EA
:1005A00046C0AC81BD818E819F81EDECFCEC6CEC92
:1005B0007DE382D6A0E0B0E080E09FE32ED6DF01AD
:1005C000CB01ABD3EC83FD836E837F83AC85BD858C
:1005D0008E859F85BFD6AED50E2FA885B98511967D
:1005E000A887B9871197E05DEC93E02FFF27662776
:1005F0007727D9D5AC81BD818E819F815DD6AC85B1
:10060000BD858E859F8552D501D6EC87FD876E8787
:100610007F87E12F1F5FE03009F0BFCFA885B98544
:100620001196A887B9871197EEE2EC93B6CFE885CB
:10063000F9853196E887F9873197AA85A08330300C
:100640002CF43195A885B985EDE203C0A885B9855C
:10065000EBE2EC93E885F9853196E887F9873196E6
:10066000E887F9873197BF01A32FEAE0A6D4E05DC0
:10067000DB01EC93E885F9853196E887F9873197B6
:10068000BF01A32FEAE0C2D4E05DDB01EC93A885B3
:10069000B985E0E0EC9367D460960895BA93AA9385
:1006A000EF97619757D410E0FE01E85AFF4FD9D475
:1006B000E887F987FE01EA5AFF4FD3D4EE83FF8320
:1006C000AE81BF81E0E0F0E0ED93FC93DE01A45A3F
:1006D000BF4FED91FD913196FE93EE933197E491EA
:1006E0002E2FE03009F486C2E12FE03059F4253294
:1006F00011F411E006C02A93AF81B885E985FA8527
:10070000099577C2E130E1F4253239F42A93AF81BB
:10071000B885E985FA8509956BC212E0E0E0ED8BBA
:1007200000E02D3211F401E064C22B3219F4EBE247
:10073000ED8B5FC2203219F4E0E2ED8B5AC202C0A9
:10074000E23039F450E013E0203311F4006851C274
:1007500002C0E33091F4203310F02A3308F007C0D0
:10076000AAE05A9F502DE22FE0535E0F42C240E0B4
:100770002E3211F414E03DC20FC0E43099F420335E
:1007800010F02A3308F008C00062AAE04A9F402D0A
:10079000E22FE0534E0F2DC22C3619F4026015E003
:1007A00028C203C0E53009F024C2E22FE33691F4F9
:1007B000FE01E65AFF4F55D43497DE01A65ABF4FCB
:1007C000ED93FC93A481AA93AF81B885E985FA855E
:1007D00009950EC2E53411F0E53609F403C0E6369A
:1007E00009F05EC0FE017696EE87FF87DE01A65A0D
:1007F000BF4F3DD431D4EA87FB876C877D87FE01EC
:10080000E65AFF4F2ED43497DE01A65ABF4FED9320
:10081000FC93AD85AA2332F0AD89AB3271F0A032E2
:10082000B1F01DC0EA85FB856C857D8550D4EA87D3
:10083000FB876C877D87EDE2ED8B07FF08C0ED89B4
:10084000EA93AF81B885E985FA85099508C0EE85F8
:10085000FF853196EE87FF873197AD89A08305FF2D
:1008600046E0263651F4EA85FB856C857D8514D4F7
:100870004A93AB89BC8961D20AC0EA85FB856C8545
:100880007D850AD44A932A93AC89BD89C0DDFE01D7
:100890007696EE87FF87AE85BF85F6D11E2F3BC0CB
:1008A000E337C1F4FE01E65AFF4FDBD33497DE0194
:1008B000A65ABF4FED93FC93DE01A65ABF4FD7D384
:1008C0001496ED91FD91EE87FF87AE85BF85DCD153
:1008D0001E2F1AC0E03721F5FE01E65AFF4FC1D3A3
:1008E0003497DE01A65ABF4FED93FC93DE01A65A62
:1008F000BF4FBDD31496ED91FD91EE87FF87AE8576
:10090000BF85CED11E2F08600F77403011F0411700
:1009100008F001C0142F40E0E0E0EC8B30E098C01C
:10092000E43611F0E93611F4046002C0E537C1F491
:10093000EAE0EC8B01FF0AC0E0E0FAEC6AE97BE355
:10094000E88BF98B6A8B7B8B1AE028C0E0E1F7E239
:1009500060E070E0E88BF98B6A8B7B8B15E01EC042
:10096000E83511F4086003C0E83709F041C1E0E15F
:10097000EC8B01FF0AC0E0E0F0E060E070E1E88BA2
:10098000F98B6A8B7B8B18E009C0E0E0F0E160E056
:1009900070E0E88BF98B6A8B7B8B14E0403011F0B0
:1009A0000F7701C041E001FF11C0FE01E65AFF4F81
:1009B00058D33497DE01A65ABF4FED93FC93DE0166
:1009C000A65ABF4F54D3149641D326C002FF12C07B
:1009D000FE01E65AFF4F45D33497DE01A65ABF4FBA
:1009E000ED93FC93DE01A65ABF4F41D314962AD350
:1009F000D1D212C0FE01E65AFF4F33D33497DE0145
:100A0000A65ABF4FED93FC93DE01A65ABF4F2FD3DA
:100A1000149618D366277727EA87FB876C877D872C
:100A200002FF15C0AD85AA235AF4EA85FB856C85C3
:100A30007D85A2D2EA87FB876C877D87EDE2ED8B0F
:100A4000ED89E03019F01F5F4F5F01C00B7F342F3D
:100A500000FD18C0151710F4351708F013C007FF74
:100A600008C002FF04C00B7F2D89115001C020E394
:100A700001C020E22A93AF81B885E985FA850995FE
:100A80005150E8CF141700F5006102FF11C00B7F31
:100A9000ED89EA93DE01A95ABF4FE9D2FE01E75A78
:100AA000FF4FDFD20995503009F05150115041509D
:100AB000E0E3EA93AF81B885E985FA85099550307E
:100AC00009F051504150DECF312FEC89E030D9F49C
:100AD0003030C1F003FF06C0EE85FF852591EE871B
:100AE000FF8705C0AE85BF852D91AE87BF872A934E
:100AF000AF81B885E985FA850995503009F05150E4
:100B00003150E6CF68C0E889F9896A897B89AA856E
:100B1000BB858C859D8556D22E2F2A3030F003FF61
:100B200002C0295C01C0295A01C0205D04FD2CC00F
:100B3000213360F4A889B9898A899B89A130E0E0D2
:100B4000BE07E0E08E07E0E09E0709F40BC0431704
:100B500040F4531710F000FF01C01FC020E207FF50
:100B600013C020E3006102FF0FC00B7FED89EA9301
:100B7000DE01A95ABF4F7BD2FE01E75AFF4F71D267
:100B80000995503009F051502A93AF81B885E98515
:100B9000FA850995503009F051503150E889F989AA
:100BA0006A897B89AA85BB858C859D853BD2EA872E
:100BB000FB876C877D87EC89A889B9898A899B899D
:100BC000FF2766277727FED1E88BF98B6A8B7B8B13
:100BD0007AD209F098CF00FF0BC0503049F0515045
:100BE000E0E2EA93AF81B885E985FA850995F5CF0A
:100BF00010E06CCDAE81BF81ED91FD91B2D1EF9649
:100C00006F960895FF92F82E2697A6D1DE011C96C6
:100C1000AFD118D2309719F4EFEFFFEF24C0DE0107
:100C20001696A6D18D01DE011C96A2D1ED91FD9103
:100C3000EE83FF83E0E0E887E987DE011A9698D12A
:100C4000ED91FD91FA93EA931A930A93ECECF1E09B
:100C5000FA93EA93DE011A9621DD9F01AE81BF81EE
:100C6000E0E0EC93F9017FD12A96FF900895BA93C2
:100C7000AA93E991F991A991B991CD0105900D92AD
:100C80000020E1F7FC010895BA93AA93A991B991C4
:100C9000EE27FF276D91662311F03196FBCF089563
:100CA000BA93AA93AA27BB27E991F991059000204E
:100CB00011F01196FBCFFD010895F3D17B816A817C
:100CC000F981E88177FB770F67FD7160972F9E5759
:100CD00081F078F0983190F4AA27BB2788270894F0
:100CE0008795B795A7959A95D1F7EA23FB236823B3
:100CF00005C0E8947727EE27FF2766276F7776955C
:100D000008F4606877F9A991B99189919991EA17E6
:100D1000FB076807790797FB0895C3D1B3D1CDDFEF
:100D2000B6D111F4AAD107C0EEF7A7D1A0E0B0E088
:100D300080E89FE36BD224960895BA93AA932497F0
:100D4000E0E0E883E983EA83EFE3EB8307D1EB8517
:100D5000FC85EF3FAFEFFA0741F4EE81FF81FA9394
:100D6000EA93A2E6B0E083DFF2C0EF3FAFE7FA0715
:100D700041F4EE81FF81FA93EA93A3E6B0E077DFD6
:100D8000E6C0AC85AA238AF4E985FA856B857C8563
:100D90009ED1E987FA876B877C87AE81BF811196E8
:100DA000AE83BF831197EDE2EC93A885A73010F0D6
:100DB000E6E0E8871885E12F1150E03071F0AA8154
:100DC000BB818C819D81EDECFCEC6CEC7DE374D2FD
:100DD000EA83FB836C837D83EECFEA81FB816C81A8
:100DE0007D81A985BA858B859C8517D2E987FA878D
:100DF0006B877C8710E0E0E0F0E060E87FE3EA8367
:100E0000FB836C837D83EA81FB816C817D81A98575
:100E1000BA858B859C85E2D2C8F0AA81BB818C8182
:100E20009D81E0E0F0E060E271E446D2EA83FB837A
:100E30006C837D831F5F173240F0EE81FF81FA9350
:100E4000EA93A7E6B0E013DF82C0DDCF103049F4AB
:100E5000AE81BF811196AE83BF831197E0E3EC931F
:100E60003CC0E12F1150E030C1F1AA81BB818C81DF
:100E70009D81EDECFCEC6CEC7DE31ED2A0E0B0E0DB
:100E800080E09FE3CAD1DF01CB0147DFEA83FB8328
:100E90006C837D83A985BA858B859C855BD24AD17D
:100EA0000E2FAE81BF811196AE83BF831197E05D97
:100EB000EC93E02FF0E0AA81BB818C819D816AD008
:100EC00072D1FAD1A985BA858B859C85EFD09ED148
:100ED000E987FA876B877C87C4CFE885E03099F192
:100EE000AE81BF811196AE83BF831197EEE2EC9382
:100EF000E885E150E887EF5F31F1A985BA858B85F8
:100F00009C85E0E0F0E060E271E4D6D1E987FA8701
:100F10006B877C870FD10E2FAE81BF811196AE8378
:100F2000BF831197E05DEC93E02FF0E0A985BA85CF
:100F30008B859C852FD037D1B9D068D1E987FA87C6
:100F40006B877C87D5CFAE81BF81E0E0EC930DD07D
:100F50002D9608955A934A933A932A931A930A9393
:100F600008955D814C813B812A8119810881089512
:100F70000024AF0DB01D0895F09560957095E19532
:100F8000FF4F6F4F7F4F0895FE2FFF0FFF0B6F2F07
:100F90007F2F08956F2F660F660B762F089500241C
:100FA00098E0AA0F001C0E1A10F40E0E01C0A160EA
:100FB0009A95B9F7EA2FA02D089538D0F0DF0EF4F6
:100FC000E19508953F934F935F9300241124A0016E
:100FD00030E2AA0FBB1F881F991F001C111C441F61
:100FE000551F0E1A1F0A460B570B28F40E0E1F1E14
:100FF000461F571F01C0A1603A9559F7FD01BC017A
:10100000D001CA015F914F913F910895E894A7FFE5
:1010100002C0A1956894E7FDE195C1DFEA2F0EF4C7
:10102000E1950895CFDFFD01BC010895E894E7FF45
:1010300002C0E1956894A7FF04C0A19500F803944D
:1010400000FA0895ED91FC9111970895ED91FD91AD
:101050006D917C9113970895ED91FD916D917D9126
:1010600008950F920190F081E02D0F9008950F9256
:101070000D90BC91A02D0F900895E881F9816A81AF
:101080007B810895A881B9818A819B810895E88335
:10109000F9836A837B8308957A936A93FA93EA9338
:1010A00008959A938A93BA93AA930895182E862F37
:1010B000612D192E972F712D1B2EBF2FF12D1A2E5A
:1010C000AE2FE12D0895309760407040089530971D
:1010D0006040704009F070580895552342F450382C
:1010E00011F4E0FF04C03196691F791F6BF050E8DE
:1010F000572711F45F93CFC05F3F31F0660F000CAC
:1011000057956795752F08955F9300200AF0CEC01C
:10111000C7C050E8192E1522880F991F9527550F23
:10112000879550E8072E0522660F771F7527550F04
:1011300067950895689401C0E8945F93F2DF703872
:1011400018F07F3F08F4A7C056E1571BAAF4519549
:1011500058300EF4593030F0EFEFFFEF6FEF7FE7CC
:1011600077F91AC077275523B9F0EE0FFF1F661FD6
:10117000771F5A95D1F710C07727583028F0EF2FF6
:10118000F62F672F5850F9CF552331F07695679594
:10119000F795E7955A95D1F700200AF4EDDE5F91B7
:1011A0000895689401C0E894309760407040B1F0B1
:1011B000002426F0772312F40094DEDE172E7EE161
:1011C000112032F07A95EE0FFF1F661F111CF9CF28
:1011D000EF2FF62F612D5F938ADF5F9108954F9374
:1011E000AF01FD01DA01AB01BC01CA01402D012CA8
:1011F000142E4F910895EA0FFB1F681F0895E09584
:10120000F0956095EF5FFF4F6F4F08955F9381DF1B
:10121000903871F150E8152604C05F937ADF90385A
:1012200039F1703821F1572F591B2BF112F4D7DF08
:10123000FACF583118F0AA27BB278827583028F052
:10124000AB2FB82F88275850F9CF552329F0869512
:10125000B795A7955A95D9F7502D512572F0CBDF48
:1012600038F46795F795E795739513F41FC0B7DFCA
:101270003EDF5F910895D8F7FBCFEA1BFB0B680BAD
:1012800051F010F40094BBDF662392F3EE0FFF1FC2
:10129000661F7A95CBF7EE27FF27BF015F91089570
:1012A000EFEFFFEF6FE77FEF5F910895EFEFFFEF55
:1012B0006FE77FE75F9108955F932BDF703859F3F5
:1012C000903849F301240894791F23F424F3002073
:1012D0003AF3ECCF0F921F932F933F934F93112725
:1012E00022279927689FA0018F9F302D410D591FFC
:1012F0006B9F300D411D591F8E9F27D0BF9F25D05A
:101300006A9F23D0BE9F1DD0AF9F1BD0AE9F110DF3
:10131000291F391F491F591FE32FF42F652F522F03
:101320004F913F912F911F910F9066232AF0550FF7
:10133000EE1FFF1F661F02C073954BF2CEDE5F915A
:101340000895100D211D391F02C0200D311D491FA8
:10135000591F08955F93DDDE703821F411200AF4DF
:101360009FCFA4CF903809F496CF01240894970B0F
:101370001BF4D4F30020F3CF792F1F932F933F93C7
:101380004F931124112722273327A90190E2AE178A
:10139000BF078607410730F0AE1BBF0B860B410B22
:1013A000089401C08894551F221F331F111CAA1FC7
:1013B000BB1F881F441F9A9551F7F901612D4F916A
:1013C0003F912F911F91662332F0550FEE1FFF1FA3
:1013D000661F7A954BF281DE5F91089599239AF00A
:1013E000772342F0971748F029F4AE17BF07860716
:1013F00020F031F098948894089598940894089572
:101400001894889408957723C2F7971798F3A9F74B
:10141000EA17FB07680788F399F3ECCF109639F0C9
:10142000A89588EB9BE00197F1F71197C9F708950C
:00000001FF
